:020000040800F2
:10000000D0E4002029030008335D0008554E0008A5
:10001000315D00084B0F0008558400080000000007
:10002000000000000000000000000000690200085D
:100030002B1F000800000000C5020008ED7C00082E
:100040004303000843030008430300084303000878
:1000500043030008430300082D1F00084303000862
:1000600043030008331F0008391F0008430300083A
:100070005519000843030008430300084303000820
:100080004303000843030008430300084303000838
:100090004D0F000843030008430300083F1F0008FA
:1000A0004303000843030008430300084303000818
:1000B000BD7D000843030008430300084303000814
:1000C00043030008430300084303000843030008F8
:1000D0004303000831840008430300083D840008FE
:1000E00043030008430300084303000843030008D8
:1000F00043030008430300084303000843030008C8
:1001000043030008430300084303000843030008B7
:1001100043030008430300084303000843030008A7
:1001200043030008611900086D1900082D1E00081E
:100130004303000843030008430300084303000887
:10014000A90F000843030008430300084303000805
:10015000391E0008451E0008511E00084984000889
:100160004303000843030008430300084303000857
:100170004303000843030008430300080000000095
:10018000430300084303000800F002F800F05CF8A5
:100190000AA090E8000C82448344AAF10107DA45E2
:1001A00001D100F051F8AFF2090EBAE80F0013F0D8
:1001B000010F18BFFB1A43F001031847B8C800002D
:1001C000D8C800000A444FF0000C10F8013B13F0AF
:1001D000070408BF10F8014B1D1108BF10F8015BA0
:1001E000641E05D010F8016B641E01F8016BF9D193
:1001F00013F0080F1EBF10F8014BAD1C0C1B09D1EA
:100200006D1E58BF01F801CBFAD505E014F8016B5B
:1002100001F8016B6D1EF9D59142D6D370470000ED
:100220000023002400250026103A28BF78C1FBD8FF
:10023000520728BF30C148BF0B6070471FB50BF095
:1002400042FF1FBD10B510BD00F002FA1146FFF7C6
:10025000F5FF09F005FD00F020FA03B4FFF7F2FF07
:1002600003BC00F023FA00002C4B19680868B0E8C2
:10027000F04F80F30988BFF36F8F4FF0000080F3D9
:10028000118870470000000008480068006880F38B
:1002900008884FF0000080F3148862B661B6BFF39F
:1002A0004F8FBFF36F8F00DF00BF00BF08ED00E08E
:1002B000DFF80C00016841F470010160704700BF75
:1002C00088ED00E0EFF30980BFF36F8F134B1A68DE
:1002D0001EF0100F08BF20ED108A20E9F04F1060CB
:1002E00009B44FF0500080F31188BFF34F8FBFF374
:1002F0006F8F0AF0E1FD4FF0000080F3118809BC18
:1003000019680868B0E8F04F1EF0100F08BFB0EC95
:10031000108A80F30988BFF36F8F70472C0000208C
:10032000EFF30580704700000948804709480047FF
:10033000FEE7FEE7FEE7FEE7FEE7FEE7FEE7FEE795
:10034000FEE7FEE704480549054A064B70470000F2
:10035000AD7D000889010008D0A40020D0E4002071
:10036000D0C40020D0C4002053EA020C00F0698001
:100370002DE9F04B4FF00006002B1FBFB3FA83F5B9
:1003800003FA05F424FA05F65E4012BF1643B2FAEA
:1003900082F502FA05F4C5F120051EBF22FA05FC1C
:1003A00044EA0C04203556EA044C4FEA144418BFC2
:1003B000641C4FF000084FF00009904271EB030CF1
:1003C00039D3002919BFB1FA81F701FA07F6B0FA5B
:1003D00080F700FA07F6C7F120071EBF20FA07FCD6
:1003E00046EA0C062037B6FBF4FCA7EB0507103FE6
:1003F00007F01F0BCBF120060CFA0BFB2CFA06F6CC
:1004000044BFB3460026202FA4BF5E464FF0000B2A
:100410005BEA060C08BF4FF0010B19EB0B09ABFBB5
:10042000027C48EB0608C01B06FB02CC0BFB03CC8E
:1004300071EB0C01C1E70B46024641464846BDE858
:10044000F08B13B54FF000004FF00001AFF30080C8
:10045000BDE81C40704710B5431C02E010F8011BBA
:1004600071B18107FAD14FF0013202C88C1A8C4366
:1004700014EAC211F9D0C01A0A0603D0C01E10BD7A
:10048000C01A10BD0A0401D0801E10BD0902FCD0A4
:10049000401E10BD032A40F2308010F0030C00F023
:1004A000158011F8013BBCF1020F624498BF11F8AE
:1004B00001CB00F8013B38BF11F8013BA2F1040267
:1004C00098BF00F801CB38BF00F8013B11F00303DF
:1004D00000F02580083AC0F0088051F8043B083A43
:1004E00051F804CBA0E80810F5E7121D5CBF51F8E5
:1004F000043B40F8043BAFF30080D20724BF11F85F
:10050000013B11F801CB48BF11F8012B24BF00F8C3
:10051000013B00F801CB48BF00F8012B704710B534
:10052000203AC0F00B80B1E81850203AA0E81850EB
:10053000B1E81850A0E81850BFF4F5AF5FEA027CAC
:1005400024BFB1E81850A0E8185044BF18C918C01B
:10055000BDE810405FEA827C24BF51F8043B40F8BC
:10056000043B08BF7047D20728BF31F8023B48BFA1
:1005700011F8012B28BF20F8023B48BF00F8012BDF
:10058000704702F0FF0343EA032242EA024200F00E
:1005900002B84FF000020429C0F0128010F0030CE2
:1005A00000F01B80CCF1040CBCF1020F18BF00F866
:1005B000012BA8BF20F8022BA1EB0C0100F00DB815
:1005C0005FEAC17C24BF00F8012B00F8012B48BF73
:1005D00000F8012B70474FF0000200B51346944617
:1005E0009646203922BFA0E80C50A0E80C50B1F18B
:1005F0002001BFF4F7AF090728BFA0E80C5048BF9F
:100600000CC05DF804EB890028BF40F8042B08BF3C
:10061000704748BF20F8022B11F0804F18BF00F838
:10062000012B704770477047704710B500F008F80D
:10063000006810BD10B5044600F002F8046010BD5B
:10064000004870476CA40020004870476CA400204C
:100650007546FFF7F9FFAE4605006946534620F0A0
:100660000700854618B020B5FFF76CFEBDE82040B6
:100670004FF000064FF000074FF000084FF0000B5E
:1006800021F00701AC46ACE8C009ACE8C009ACE811
:10069000C009ACE8C0098D46704710B50446AFF3F9
:1006A00000802046BDE81040FFF7D7BD0149182063
:1006B000ABBEFEE726000200704707F003BF07F05D
:1006C00097BF08F083BBF0EE400AF5EEC00AF1EEEA
:1006D00010FA02DDB0EE600A7047B1EE600AFBE787
:1006E000002803D09FED020A80ED000A7047000049
:1006F00000000000002803D0B3EE060A80ED000AD7
:100700007047000070B52DED0C8B84B006460C468A
:1007100015469FED990AF0EE408A9FED970AB0EEDC
:10072000409A9FED950AF0EE40BA9FED930AF0EEE5
:10073000409A9FED910AB0EE40AA0EB104B11DB9E6
:1007400004B0BDEC0C8B70BD8C48FFF7C9FF8C4822
:10075000FFF7D0FF8A48D0ED000A9FED8A1A60EEBD
:10076000810AB0EE600A00F025F9F0EE408A28EE2A
:10077000A80AF0EE408A8248D0ED000AB0EE001AD6
:1007800060EE810A9FED7F1A60EE810AB0EE600A8A
:1007900000F010F9B0EE409A29EE090AB0EE409A46
:1007A000DFED790AB7EE000A00EEA80ADFED770A5E
:1007B00000EEC90ADFED760A20EE200A754880EDCA
:1007C000000A6E4890ED000ADFED730A80EE201AF1
:1007D000B7EE000A31EE000A20EE000A6D48D0EDB7
:1007E000000A80EE801A6D4880ED001A94ED000A30
:1007F000B5EEC00AF1EE10FA0DD194ED010AB5EE96
:10080000C00AF1EE10FA06D194ED020AB5EEC00A64
:10081000F1EE10FA46D09FED580AB0EE408A002063
:10082000019002900390D4ED000A60EEA00A94EDCE
:10083000011AD4ED011A41EE210A94ED021AD4ED09
:10084000021A41EE210AB0EE600A00F0A9F8B0EEFB
:10085000408A94ED000A20EE080A8DED010A94ED1D
:10086000010A20EE080A8DED020A94ED020A20EE3C
:10087000080A8DED030ADDED010AF1EE600AB0EE23
:10088000600AFFF71AFFF0EE409A9DED031AF0EEB2
:10089000410A9DED021AB0EE410AFFF710FFB0EEDB
:1008A00040AA07E09FED340AF0EE409A9FED320A2D
:1008B000B0EE40AA95ED000AB5EEC00AF1EE10FACE
:1008C0000DD195ED010AB5EEC00AF1EE10FA06D190
:1008D00095ED020AB5EEC00AF1EE10FA3CD0B0EE8A
:1008E000690A00F067F8B0EE408AB0EE690AFFF7D7
:1008F000E8FEB0EE40DAB0EE4A0A00F05BF8F0EE47
:1009000040AAB0EE4A0AFFF7DCFEB0EE40BA28EE8D
:100910002A0AD5ED010A20EE200AD5ED000A0DEED7
:10092000200A68EE0B0A95ED021A00EE810AB0EE7D
:1009300040CA95ED010A20EE0B0AD5ED020A0AEE37
:10094000E00AF0EE40CAF0EE6C0AB0EE4C0AFFF797
:10095000B6FEF0EE40BA03E09FED070AF0EE40BAB3
:10096000B0EE4A1AF0EE690AB0EE6B0A304608F0B3
:1009700077F900BFE4E60000000000002C0300202F
:100980003003002035FA8E3CC1BFAD3B9DF8C53623
:100990002F7C1C4134030020506CC24A38030020D5
:1009A00010B507F07BFFB7EE001AC1EE000AB0EEFB
:1009B000600A10BD08F04EBA2DE9F0412DED028B12
:1009C0009AB00546B0EE408A0E461746984600207B
:1009D0001790189019901490159016904DB146B13B
:1009E0003FB1B8F1000F04D0B5EEC08AF1EE10FAB5
:1009F00005D100201AB0BDEC028BBDE8F08196ED68
:100A0000000A8DED170A96ED010A8DED180A96ED94
:100A1000020A8DED190A97ED000A8DED140A97ED83
:100A2000010A8DED150A97ED020A8DED160A17AA37
:100A300014A9284607F066FF402104A8FFF7CBFD64
:100A400000200090019002900390002417A904A8B0
:100A500009F09AFF00BF30E004A800EB041090ED0D
:100A6000000AD5ED000A20EE200A04A800EB0410CD
:100A7000D0ED010A95ED011A00EE810A04A800EB01
:100A80000410D0ED020A95ED021A00EE810A04A8C6
:100A900000EB0410D0ED030A95ED031A00EE810A75
:100AA00020EE080AF0EE000A80EE201A684600EBFD
:100AB000840080ED001A601CC4B2042CCCDB00243E
:100AC00010E005EB840090ED000A684600EB84001E
:100AD000D0ED000A30EE200A05EB840080ED000A1C
:100AE000601CC4B2042CECDB284609F04BFE01204C
:100AF00080E70000FCB4069DADF80000ADF80210E0
:100B0000ADF80420ADF806301C486C46002D806816
:100B10001CD0012D2FD10021194D4FF6FF7634F84E
:100B2000112002EBC20303EB021206EA820205EB7C
:100B300041031A76120A5A76491C0429EFDB02B0E7
:100B40000023F0BC1A460E490AF0FEBA00210C4DF3
:100B5000203D34F8112005EB4103160A1E765A7623
:100B6000491C0429F5DB02B00023F0BC04491A46F5
:100B700020390AF0E9BAFCBC70470000B40000203C
:100B8000509D00202DE9F04106460F46154D0024EA
:100B900004EB440000EBC40007EBC002D5ED020AF1
:100BA000B2F90C0095ED031A00EE100AB2F902003A
:100BB000B8EEC00A20EE200A00EE900AF8EEE00A35
:100BC00000EE810A95ED011AD5ED000A09F038F81A
:100BD00006EB840080ED080A641C042CD8DBBDE819
:100BE000F081000020C2000801221021014802F01B
:100BF00025BA00000000024000221021014802F046
:100C00001DBA00000000024070470000012211469A
:100C1000014802F013BA0000000402400022012142
:100C2000014802F00BBA00000004024030B54378DE
:100C300004781B021BB2234300EE103A1B4CB8EEA3
:100C4000C00AD4ED000A20EE200A81ED000AC37824
:100C500085781B021BB22B4300EE103AF8EEC00A57
:100C600094ED000A60EE800AC1ED010A437904792F
:100C70001B021BB2234300EE903AF8EEE00A20EE8E
:100C8000800A81ED020A017AC3790904807941EA78
:100C90000321014300EE101ADFED050AB8EE400A09
:100CA00020EE200A82ED000A30BD0000B0020020D4
:100CB00000401C42704709F01FB808F085BC0000D6
:100CC00010B542780378120212B21A4300EE102ACD
:100CD000124BB8EEC00AD3ED010A20EE200A81EDD6
:100CE000000AC2788478120212B2224300EE102A5F
:100CF000F8EEC00A93ED010A60EE800AC1ED010A28
:100D000042790079120212B2024300EE902AF8EE04
:100D1000E00A20EE800A81ED020A10BDB002002038
:100D200010B5FFF771FFFFF7C5FF08F063F908B1D1
:100D3000802402E008F0D0F8044608F021FB10B14E
:100D400044F0400010BD08F0ADFA204310BD000093
:100D50002DE9FC4104460D46164600200090019006
:100D6000FFF74AFF922000F0BFF8062269461220E2
:100D700000F09CF8FFF738FF9DF801009DF8001087
:100D8000000200B2084300EE100A474FB8EEC00A56
:100D9000D7ED000A20EE200A85ED000A9DF8030039
:100DA0009DF80210000200B2084300EE100AF8EEAF
:100DB000C00A97ED000A60EE800AC5ED010A9DF8B1
:100DC00005009DF80410000200B2084300EE900AEE
:100DD000F8EEE00A20EE800A85ED020AFFF71EFF1A
:100DE00008226946002000F061F8FFF70FFF9DF828
:100DF00000000F2830D19DF803009DF8021000027A
:100E000000B2084300EE100AD7ED010AB8EEC00A9E
:100E100020EE200A84ED000A9DF805009DF80410DC
:100E2000000200B2084300EE100AF8EEC00A97ED87
:100E3000010A60EE800AC4ED010A9DF807009DF8E2
:100E40000610000200B2084300EE900AF8EEE00A35
:100E500020EE800A84ED020AFFF7CEFEA22000F009
:100E600043F802226946222000F020F8FFF7BCFE7A
:100E70009DF800009DF80110C00040EA5110B0F547
:100E8000806F02DBA0F5006000B200EE100AB4EE45
:100E9000001AF8EEC00AB3EE070A00EE810A86EDEA
:100EA000000ABDE8FC810000B002002070B50D46CC
:100EB000144640F0800000F017F806E0552000F0DE
:100EC00013F805F8010B641EE4B2002CF6D170BDD6
:100ED00010B50C4640F0800000F006F8552000F0F8
:100EE00003F8207010BD000001B582B04FF47A7095
:100EF0000090012301AA02A9024803F065F89DF8B9
:100F000004000EBD880A002002784078D20042EA30
:100F10005010B0F5806F02DBA0F5006000B200EE6B
:100F2000100AB4EE001AF8EEC00AB3EE070A00EE9B
:100F3000810A81ED000A704710B50C46FFF7D4FF17
:100F40002046BDE81040FFF7CFBFFEE7014801F0A3
:100F5000D9B90000E409002010B58AB01048002279
:100F600002A900680AF002FA002816D008AA01AB0C
:100F7000144602A90B4801F041F800280DD001AB3E
:100F8000224602A9074801F039F8002805D001AB34
:100F9000224602A9034801F031F80AB010BD000052
:100FA000B8000020E4090020014801F0ABB90000BE
:100FB0000C0A002010B58AB01048002202A900686F
:100FC0000AF0D4F9002816D008AA01AB144602A9E9
:100FD0000B4801F013F800280DD001AB224602A9FE
:100FE000074801F00BF8002805D001AB224602A902
:100FF000034801F003F80AB010BD0000BC00002057
:101000000C0A002030B5002202EB420303EBC203BE
:1010100001EBC303D0ED060AB3F90C4000EE104A11
:10102000B8EEC00A60EE800A00EE104A00EB8204BF
:10103000B8EEC00A20EE800A84ED100AB3F902501F
:10104000D0ED040A00EE105AB3F90C50B8EEC00A05
:1010500060EE800A00EE105AB8EEC00A20EE800A58
:1010600084ED140AB3F90230D0ED050A00EE103A0F
:10107000B8EEC00A60EE800A00EE103AB8EEC01A70
:1010800090ED070A00EE810A84ED180A521C042A2A
:10109000BADB30BD2DE9F04106462DED068BB0EEF2
:1010A000408A0F460024DFED209A9FED20AAB0EE83
:1010B000009A04EB440000EBC40007EBC005B5F94F
:1010C0000C0000EE100AB8EEC00A08F00BFEC9EEE4
:1010D000808AB5F90C0000EE100AB8EEC00A08F0DC
:1010E00001FECAEE000A06EB840595ED080A60EEE3
:1010F000091A95ED140AB0EE611A08EE401A95ED42
:10110000100A20EE090A40EE081A81EE210AB0EE1C
:10111000681A08F095FD85ED0C0A641C042CC8DBE8
:10112000BDEC068BBDE8F08100008046000080C663
:1011300070B505462DED048B0E469FED299AF0EE15
:10114000498A002404EB440000EBC40006EBC00114
:10115000D5ED040AB1F90C00B1F9022000EE100A35
:1011600095ED051AB8EEC00A60EE800A00EE102A6E
:10117000B8EEC00A60EE800A00EE102AB8EEC00A8F
:1011800021EE001A00EE102AB8EEC00A41EE000A65
:1011900000EE100A95ED061AB8EEC00A21EE001A0C
:1011A00000EE100AB8EEC00A41EE000A95ED070AFB
:1011B00030EE808AB5EEC08AF1EE10FA03D3E0B2C9
:1011C00009F058FB08B1B0EE498A78EE888A641CB1
:1011D000042CB7DBB0EE680ABDEC048B70BD0000D8
:1011E0000000000070B505462DED048B9FED159AAB
:1011F000F0EE498A002405EB840090ED100AD0ED52
:101200000C0A90ED141A20EE200A20EE200A01EEBE
:10121000200AD0ED180A30EE208AB5EEC08AF1EE31
:1012200010FA03D3E0B209F025FB08B1B0EE498A09
:1012300078EE888A641C042CDDDBB0EE680ABDEC15
:10124000048B70BD00000000014951F820000047E8
:101250008001002070B58AB001250895002406940D
:1012600007950094019402940394059404940E2627
:10127000099669461B4800F033FF1A4801F059FBF4
:101280000221184800F0A8FE08950695079444F23C
:101290002000009044F24000019044F2600002906F
:1012A0004FF4814003900596049469460E4800F07F
:1012B00017FF4FF41850009042F2604001900294E2
:1012C00003940F20059004946946074800F008FF36
:1012D000054801F02EFB0221034800F07DFE0AB014
:1012E00070BD0000E40900200C0A00203FB50D4845
:1012F00090E80E00C0688DE80E00039000200022E8
:101300006B46082453F830108A60CA600C6103EB06
:10131000C0056D680D608A61CA61401C0228F1D366
:101320003FBD00006CC1000870B51E48DFED1E0A0D
:1013300090ED070A1D4820EE200A80ED040A1C49A2
:101340004FF4804202E0A0F58040886088689042B7
:10135000F9DA91ED020ADFED170AB8EEC00A20EEC5
:10136000200A81ED070A0024134E144D204609F08F
:1013700081FA08B1002105E004EB840006EB40008F
:10138000B0F9021004EB440000EBC40005EBC00010
:10139000418090ED010A80ED020A641CE4B2042C45
:1013A000E4D370BD2CA00020E12E65428C0100200A
:1013B000A0A20020A0FEB33C18A1002040A1002064
:1013C00010B504460E2009F055FADFED2A0A10B1D7
:1013D000C4ED000A10BD284841782848012904D0EE
:1013E000032919D10021817616E025490A7A012ABC
:1013F00007D04A7A022A07D0897A012907D049B151
:101400000AE00421817607E00321817604E00221CD
:10141000817601E0012181761A491B4A91ED000A8B
:1014200010EE101A914222DD807E0528D2D2DFE82C
:1014300000F00319140F0C00DFED140AB0EE601A6F
:1014400000EE201A84ED001A10BDC4ED000A10BD94
:101450009FED0F0A84ED000A10BD9FED0E0A84ED8A
:10146000000A10BD9FED0C0A84ED000A10BDC4ED0A
:10147000000A10BD0000B442089D00208C0100202D
:1014800008A10020F49C00203333B33E0000C84282
:101490000000F042000020430000A0422DE9F0418E
:1014A0000546DFF8C08098F80100032809D1B8F993
:1014B0000A10B1F5FA6F04DA11F5FA6F01DD0124B3
:1014C00000E000241CB998F80010032903D000267E
:1014D000032802D003E00126FAE704B93EB1002751
:1014E000022815D0092009F0C5F988B901E00127C3
:1014F000F6E7002009F0BEF950B9012009F0BAF969
:1015000030B9022009F0B6F910B9032009F0B2F998
:1015100098F801001449012802D10A7A012A04D05E
:101520004FF00008012803D00BE04FF00108F9E765
:10153000087A022803D00A2009F09CF908B101209A
:1015400000E00020074303D001202870BDE8F081AF
:1015500044EA0804344302D000202870F6E7022051
:101560002870F3E7089D002008A1002070B52DED3C
:10157000048B022845D00025234EDFED248A9FED01
:10158000249AB0EE008A05EB450000EBC50006EB9F
:10159000C004B4F90200D4ED010A00EE100A04F10F
:1015A0001000B8EEC00A04F0C5FB94ED010AD4EDBA
:1015B000020A70EE600A94ED0C0ABDEEC00A10EE4D
:1015C000100A00B200EE100AB8EEC00A00EE880A57
:1015D000BDEEC00A10EE100A00B2A08100EE100AA3
:1015E000B0EE681AF0EE490AB8EEC00A08F028FB1F
:1015F000BDEEC00A10EE100AA0816D1CEDB2042DE4
:10160000C1D3BDEC048B70BD40A1002000007A4620
:1016100000007AC62DE9F0412DED048B0024002551
:101620001D4E9FED1E8ADFED1E8A9FED1E9A01273B
:1016300004EB440000EBC40006EBC000458080EDE5
:10164000018A80ED028A858100F8107BF0EE680A3D
:10165000B0EE490A144A002104F03EFC641CE4B2D6
:10166000042CE5D3104ADFED110A9FED110A0C326C
:101670000021104804F030FCBDEC048B0021F3EE97
:101680000E0ABDE8F041084A0A481832B3EE0E0AC5
:10169000483004F021BC000040A100200000000000
:1016A00000007A4400007A46CCC100080000E14303
:1016B00000409C46A801002070B505462DED028B28
:1016C0000C46B0EE408A21462846FFF731FD85EDF5
:1016D000000AB4EEC80AF1EE10FA3ED9002202EB7D
:1016E000420000EBC20004EBC003988968B9B3F96B
:1016F0000200002802DDB7EE000A01E0BFEE000A9A
:10170000BDEEC00A10EE100A9881521C042AE6DBD6
:1017100021462846FFF776FCB0EE480A21462846C7
:1017200003F05EFF002202EB420000EBC20004EB7C
:10173000C003B3F90C0000EE100A05EB8200B8EE0E
:10174000C00AD0ED0C0A20EE200ABDEEC00A10EE51
:10175000100A9881521C042AE5DBBDEC028B70BD97
:101760002DED028B82B0FFF755FFC82009F088FAF3
:10177000234E002706F1190806F10809214D224CD5
:101780009FED228AFFF7D0FD4046FFF787FE4846CF
:10179000FFF716FE707EFFF757FD95ED021AD5EDA7
:1017A000010A95ED000A00F033F8707EFFF7DEFEC7
:1017B000134896ED020A1449AC30FFF77DFF0097FD
:1017C000B4F91431B4F9BC20B4F96410B4F90C00C4
:1017D000FFF790F9B4F9B200D4ED010A00EE100A57
:1017E000B4F90C00F0EE481AB8EEC01A00EE100A78
:1017F000B8EEC00A06F030FE022009F041FAC1E757
:101800008C010020FCA0002040A10020000000006E
:101810000FB530EE202ADFED1C1AC2EE212A9FED13
:101820001B2A41EE022ACDED022A30EEC03AC3EE69
:10183000212A41EE022ACDED032A30EE603AC3EEB2
:10184000212A41EE022ACDED012AB1EE400A70EEC6
:10185000600A80EEA10A01EE020A8DED000A002066
:101860000B4A694601EB800393ED000A00EB40034D
:1018700003EBC00302EBC30383ED010A401CC0B2BB
:101880000428EFD30FBD0000F304B53FC66D943EAE
:1018900040A1002010B509F019F900222021802074
:1018A00009F0B4FB094C606000222021802009F07F
:1018B000ADFBA06009F02AF9606810B1A0680028AB
:1018C00003D1BDE8104000F04CBB10BDB4000020B7
:1018D00038B509F0FBF816480122009000231146A4
:1018E00014A00AF039F8164C2060002540B109F028
:1018F000D5FE024600950023012120680AF07AF8FF
:101900001048012300901A4619460FA00AF024F847
:10191000606040B109F0C2FE02460095002301213B
:1019200060680AF067F8BDE8384009F0EFB80000D9
:10193000590F000843414E315F54696D65720000D4
:10194000A8020020B50F000843414E325F54696D74
:1019500065720000014801F09FB80000C80D00202A
:10196000014801F099B80000280E0020AFF3008074
:101970002DE9F05FFA48FB4AFA4DC06CFA4EF94F78
:101980000068DFF8E4C3DFF8DC83DFF8DC93DFF81E
:10199000D4A3DFF8D4B3DFF8CCE3F34C483D603692
:1019A0001837D1140CF1180CA8F1300809F1780996
:1019B0000AF1300A0BF1300BAEF1180E90423ED90D
:1019C000E84A543A1368A04201D1202235E0A842E7
:1019D00001D1202231E0B04201D120222DE0B842D5
:1019E00001D1202229E0604501D10A4625E0404589
:1019F00001D10A4621E0484501D10A461DE0504583
:101A000001D10A4619E0584502D14FF4001214E002
:101A1000704502D14FF400120FE0D34A9032904249
:101A200002D14FF4001208E0CE4A4832904202D16F
:101A30004FF4001201E04FF000621340C3E0CA4AC5
:101A4000A83290423ED9C74A583A1368A04201D101
:101A5000202235E0A84201D1202231E0B04201D15C
:101A600020222DE0B84201D1202229E0604501D199
:101A70000A4625E0404501D10A4621E0484501D10A
:101A80000A461DE0504501D10A4619E0584502D1E9
:101A90004FF4001214E0704502D14FF400120FE031
:101AA000B14A9032904202D14FF4001208E0AD4AA0
:101AB0004832904202D14FF4001201E04FF0006230
:101AC000134080E0A84A483290423ED9A64A103AD4
:101AD0005368A04201D1202235E0A84201D1202242
:101AE00031E0B04201D120222DE0B84201D12022C4
:101AF00029E0604501D10A4625E0404501D10A466A
:101B000021E0484501D10A461DE0504501D10A4671
:101B100019E0584502D14FF4001214E0704502D18B
:101B20004FF400120FE0904A9032904202D14FF4ED
:101B3000001208E08B4A4832904202D14FF4001262
:101B400001E04FF0006213403DE0874A103A13680D
:101B5000A04201D1202235E0A84201D1202231E06B
:101B6000B04201D120222DE0B84201D1202229E04B
:101B7000604501D10A4625E0404501D10A4621E0F1
:101B8000484501D10A461DE0504501D10A4619E0F9
:101B9000584502D14FF4001214E0704502D14FF4C1
:101BA00000120FE0704A9032904202D14FF40012BE
:101BB00008E06C4A4832904202D14FF4001201E032
:101BC0004FF000621340002B72D0664A904235D924
:101BD000A04201D120212DE0A84201D1202129E0FD
:101BE000B04201D1202125E0B84201D1202121E0DD
:101BF00060451FD040451DD048451BD0504519D0E9
:101C0000584502D14FF4001114E0704502D14FF451
:101C100000110FE054499031884202D14FF4001175
:101C200008E050494831884202D14FF4001101E0E8
:101C30004FF000614B484C380160ADE04A4AA83291
:101C4000904236D9A04201D120212DE0A84201D1F5
:101C5000202129E0B04201D1202125E0B84201D164
:101C6000202121E060451FD040451DD048451BD0B4
:101C7000504519D0584502D14FF4001114E0704579
:101C800002D14FF400110FE037499031884202D160
:101C90004FF4001108E033494831884202D14FF433
:101CA000001101E04FF000612E485038016073E0F0
:101CB000AEE02D4A4832904235D9A04201D12021D0
:101CC0002DE0A84201D1202129E0B04201D12021FC
:101CD00025E0B84201D1202121E060451FD04045D8
:101CE0001DD048451BD0504519D0584502D14FF45E
:101CF000001114E0704502D14FF400110FE01A49B1
:101D00009031884202D14FF4001108E01549483162
:101D1000884202D14FF4001101E04FF000611248F7
:101D20001038C16038E0A04201D1202131E0A84242
:101D300001D120212DE0B04201D1202129E0B8427B
:101D400001D1202125E0604523D0404521D04845E0
:101D50001FD050451DD0584508D14FF4001118E050
:101D6000880A00205864024010600240704502D189
:101D70004FF400110DE02749884202D14FF40011C1
:101D800007E02549884202D14FF4001101E04FF0ED
:101D900000612048A0388160204C207880070CD555
:101DA000207820F002002070207840F0040020709D
:101DB000012211461A4801F041F96078194D800757
:101DC0000CD5607820F002006070607840F004006C
:101DD000607001221021284601F030F9A0788007B8
:101DE0000CD5A07820F00200A070A07840F004008C
:101DF000A07001221021284601F020F907F0DCFD37
:101E00002078400704D50848016841F001010160CD
:101E1000BDE8F09FA0600240A0640240CC0000201A
:101E20000004024000000240103C0140014800F064
:101E300033BE0000400B0020014800F02DBE000022
:101E4000680D0020014800F027BE0000880E002029
:101E5000014800F021BE0000080D00200168CAB250
:101E6000103A1823B2FBF3F2064B9B5CC3656FF389
:101E70000901032A02D9091D816500E08165806D91
:101E8000704700004CC1000810B5014600208A6A66
:101E90008B694FF0C074002B0ED0B3F5005F1AD0E1
:101EA00062B3012A2AD0022A28D0032A03D1C96AA0
:101EB000C90100D5012010BD1AB1012A06D0022A9D
:101EC000F9D1C96AC901F6D5012010BDC96AA1427C
:101ED000FBD1012010BD52B1012A0AD0022A06D03E
:101EE000032AF7D1C96AA142F4D1012010BD012013
:101EF00010BDC96AC901FBD5012010BD012010BD6C
:101F000030B50468256825F4802525600468636081
:101F10008368402B04D0036899600068C26030BDBC
:101F200003689A600068C16030BD7047012000F00E
:101F300089BF082000F086BF102000F083BF20205A
:101F400000F080BF08B5C178027841EA02614278AA
:101F50008078120442EA0020014300919DED000ABE
:101F600008BD72B6FEE700002DE9F0412DED028BB1
:101F7000B0EE408A0024144F144EDFF8548006EB74
:101F8000840595ED000A38EE400A07F0ABFE10EE2E
:101F9000100AB84209DA95ED000A38EE400A07F057
:101FA000A1FE10EE100A404507DC06EB840090ED20
:101FB000000ABDEC028BBDE8F081641CE4B2042C85
:101FC000DDD39FED040AF4E700809D43F0C10008D3
:101FD00000003442F42CA14390F82020012A07D0BD
:101FE000022A05D0416A41F48021416201207047F4
:101FF000006842690A43426100207047F0B590F8DA
:1020000020500468A468012D07D0022D05D0416A34
:1020100041F4802141620120F0BD04F0806504F0AC
:102020000066354301D1E50053D5C4F301640125B1
:10203000A5401D608B684FF4C0759BB1CE6805EB61
:10204000041733434E6843EAC6030668F3514FF45E
:10205000C273076803EB04130E69FE50097D012962
:1020600009D00DE00E88CB6805EB041743EA465310
:102070000668F351EBE70168CE5846F48076CE50FF
:102080001179D379567941EA036193791B0443EAC4
:10209000062319434FF4C676036806EB04169951DC
:1020A0001178D37841EA0361937852781B0443EAAC
:1020B000022211434FF4C473026803EB0413D1509E
:1020C000006805EB0411425842F001024250002022
:1020D000F0BD416A41F4001141620120F0BD0000F1
:1020E00010B590F82020012A07D0022A05D0416AB5
:1020F00041F480214162012010BD3C4800F5007090
:10210000026842F001020260026822F47C5202601E
:1021100002684B6A42EA032202600A7D02F01F0352
:1021200001229A40C3699343C361A0F50070CB6953
:10213000B3B9D0F80C329343C0F80C328C894B6899
:1021400064F31F434C6900EBC404C4F840320C89AB
:102150000B6864F31F434C6900EBC404C4F84432B9
:10216000CB69012B16D1D0F80C321343C0F80C32D6
:102170000C884B6864F31F434C6900EBC404C4F83B
:1021800040320C89CB6864F31F434C6900EBC404F4
:10219000C4F844328B697BB1D0F804321343C0F8E1
:1021A00004320B6973B1D0F814321343C0F81432FF
:1021B000096A01290CD010E0D0F804329343C0F82A
:1021C0000432EEE7D0F814329343C0F81432EFE74C
:1021D000D0F81C121143C0F81C12D0F8001221F0E4
:1021E0000101C0F80012002010BD00000064004092
:1021F000704770B590F82040012C07D0022C05D014
:10220000416A41F480214162012070BD21B104681E
:102210002469A4072AD003E00468E468A4071FD057
:102220004FF4D874056804EB01142D5905F004052A
:1022300095600DB305682D59ED08556005682C595A
:1022400004F00204D4604FF4DA74056804EB01145E
:102250002E5906F00F06082E13D30825156114E039
:10226000416A41F400114162012070BD416A41F4AC
:1022700000114162012070BD05682D596D0D15607A
:10228000DCE72D5905F00F05156105682D59C5F3DB
:102290000725956105682C59240C54614FF4DC72B4
:1022A000046802EB0112A4581C700468A458240AA4
:1022B0005C700468A458240C9C700468A258120E28
:1022C000DA704FF4DE72046802EB0112A4581C713C
:1022D0000468A458240A5C710468A458240C9C71F6
:1022E0000468A258120EDA7131B10068016941F038
:1022F00020010161002070BD0068C16841F020012B
:10230000C160F7E72DE9F05F0546002428684669BB
:10231000D0F804908768D0F80CA0D0F810B0D0F8AE
:102320001880F10748D0F90714D001218160B8075F
:1023300003D5284600F02AFB0CE0780702D54FF4BD
:10234000006407E0380702D54FF4805402E02846C5
:1023500000F01BFBF80516D529684FF480708860E3
:10236000B80503D5284600F013FB0CE0780502D52C
:1023700044F4005407E0380502D544F4804402E0F8
:10238000284600F004FBF80316D529684FF4803086
:102390008860B80303D5284600F0FCFA0CE0780307
:1023A00002D544F4004407E0380302D544F48034F5
:1023B00002E0284600F0EDFA300707D55FEACA6070
:1023C00004D544F4007429681020C86070074FF0E9
:1023D000080707D55FEA0A7004D52868C760284651
:1023E00000F0B8F9B00706D52868C068800702D0A9
:1023F000284600F0B1F9700607D55FEACB6004D536
:1024000044F48064296810200861B00607D55FEAAB
:102410000B7004D528680761284600F087FAF0069B
:1024200006D528680069800702D0284600F07FFAA8
:10243000B00308D55FEAC96005D529681020486057
:10244000284600F075FAF00307D55FEA097004D555
:1024500028684760284600F09EFA300446D55FEAB7
:10246000497040D5F00504D55FEAC87001D044F04A
:102470000104B00504D55FEA887001D544F0020478
:10248000700504D55FEA487001D544F004043005B6
:1024900029D518F0700F26D008F07000402815D00C
:1024A00006DC102809D020280AD0302816D10AE0EE
:1024B00050280ED0602811D10EE044F008040DE041
:1024C00044F010040AE044F0200407E044F0400423
:1024D00004E044F0800401E044F4807428688169D9
:1024E00021F070018161296804204860002C05D02A
:1024F000686A204368622846FFF77AFEBDE8F09FCD
:1025000070B50446002C03D094F8200010B104E00C
:10251000012070BD204600F09DF82068016841F060
:102520000101016000F092FD054605260CE000F077
:102530008DFD401B0A2807D9606A40F400306062B4
:1025400084F82060012070BD20684068C007EED08C
:102550002068016821F00201016000F077FD054666
:102560000CE000F073FD401B0A2807D9606A40F4B4
:102570000030606284F82060012070BD20684068EF
:102580008007EED4207E01283FD02068016821F02A
:1025900080010160607E01283DD02068016821F043
:1025A00040010160A07E01283BD02068016821F035
:1025B00020010160E07E012839D02068016841F0E7
:1025C00010010160207F012837D02068016821F0C8
:1025D00008010160607F012835D02068016821F082
:1025E00004010160D4E902010843D4E90412114353
:1025F00008436168491E08432168C8610020606281
:10260000012084F82000002070BD2068016841F09E
:1026100080010160BEE72068016841F0400101606F
:10262000C0E72068016841F020010160C2E720682E
:10263000016821F010010160C4E72068016841F0E1
:1026400008010160C6E72068016841F004010160EB
:10265000C8E700002DE9F04186B00446142101A826
:10266000FDF7B9FF364B374ADFF8D080186821688C
:10267000344C03260227401C103200254FF0090C71
:10268000414527D11860012807D1106840F000703B
:102690001060106800F000700090206840F00800A2
:1026A0002060206800F008000090019602970395D2
:1026B0000496CDF814C001A9234800F0CFFB0022F6
:1026C0000521142001F066F8142001F055F806B039
:1026D000BDE8F081DFF874804145F8D1116841F020
:1026E00080611160116801F080610091186001281B
:1026F00007D1106840F000701060106800F00070A2
:102700000090206840F002002060206800F0020085
:10271000009060200190029703950496CDF814C0B4
:1027200001A90B4800F09AFB00220521402001F08E
:1027300031F8402001F020F8C9E7000000640040B3
:102740001000002030380240000C024000680040B9
:1027500000040240704700002DE9FC4105466C482A
:102760006C4E85427ED16B46324600212846FFF7EB
:1027700040FD3168102914D0112933D0B1F5407FC4
:1027800070D19DF80000644900F00F020A60000952
:1027900048609DF802009DF8012040EA0220886010
:1027A00060E05C489DF800100C3841709DF8011005
:1027B0009DF803209DF8023042EA0322C2809DF872
:1027C00005209DF8043042EA032202819DF807208B
:1027D0009DF8063042EA03224281E1B3092006F067
:1027E0000FFF3FE09DF800009DF8011040EA012036
:1027F0009DF802109DF8032041EA02270C21F2EE19
:10280000040ABAEE040A08F041F8444C84ED000AC8
:102810000C21F2EE040ABAEE040A384608F036F843
:1028200084ED010A9DF8041001F003002072C1F349
:1028300081006072C1F30010A0729DF8052050075E
:10284000800E40EA5110E0729DF80610480140EAFF
:10285000D200207300E005E0C1F3C000A0730A209D
:1028600006F0CEFE2E48854240D16B46294A002113
:102870002846FFF7BEFC306840F202230246A0F271
:10288000022198420DD008DCA0F58070233836D0A4
:102890000D282DD0DE2829D103E0012901D00229FD
:1028A00024D1521ED0B21F4B00EB800203EB420139
:1028B00033F812400C819DF801409DF8005044EA25
:1028C000052423F812409DF803209DF8023042EAC7
:1028D00003224A809DF805209DF8043042EA032235
:1028E0008A809DF806208A7106F08AFEBDE8FC8188
:1028F000684608F013F80E2006F082FEF6E76846F8
:10290000FFF720FBBCEEC00A074880ED000AEDE7A8
:10291000E4090020149D0020A0A2002008A10020AE
:102920000C0A002018A10020B40000207047704756
:10293000704770B5044694F82000012805D0606AFD
:1029400040F400206062012070BD022084F8200065
:102950002068016821F00101016000F077FB054665
:102960000DE000F073FB401B0A2808D9606A40F4B0
:1029700000306062052084F82000012070BD2068CE
:102980004068C007EDD1606270BD70477047704706
:10299000704770477047704710B50446002C02D04E
:1029A000607910B106E0012010BD002020712046A2
:1029B00000F004F801206071002010BD08B5006827
:1029C0000649884208D10648016841F480510160F7
:1029D000006800F48050009008BD00000030024004
:1029E000303802402DE9F0410446A76D00F02EFB7F
:1029F000054694F835000026022806D08020606540
:102A000084F834600120BDE8F0812068016821F07D
:102A1000160101602068416921F080014161206C4C
:102A200008B9A06C20B12068016821F0080101609C
:102A30002068016821F0010101600BE000F006FB55
:102A4000401B052806D92020343420620320607002
:102A50002670D8E720680068C007EFD134343F20E3
:102A600094F828108840B86001206070267000201B
:102A7000C9E790F83510022903D080214165012073
:102A80007047052180F835100068016821F00101C8
:102A900001600020704700002DE9F84304464FF024
:102AA0000009CDF800906F484FF416510068B0FB54
:102AB000F1F7A56D2E6894F85C00082202FA00F187
:102AC000314210D02068016849070CD5016821F017
:102AD0000401016094F85C0002FA00F1A960606DE5
:102AE00040F00100606594F85C104FF0010808FAAE
:102AF00001F0304208D021684969090604D5A86070
:102B0000606D40F00200606594F85C10042088401D
:102B1000304208D021680968890704D5A860606D33
:102B200040F00400606594F85C101020884030424A
:102B300020D02168096809071CD5A86020680168B1
:102B400049030CD50068000304D4216C91B12046E0
:102B500088470FE0A16C69B1204688470AE0016808
:102B6000C90503D4016821F008010160216C09B195
:102B70002046884794F85C102020884030424CD092
:102B800021680968C90648D5A86094F83500052869
:102B90000BD020680168490330D50068000328D4B1
:102BA000616C51B32046884737E02068016821F006
:102BB000160101602068416921F080014161206CAB
:102BC00008B9A06C20B12068016821F008010160FB
:102BD00094F85C103F208840A86084F8358084F821
:102BE0003490216D00293BD001B02046BDE8F04370
:102BF0000847E16B09B1204688470EE00168C90526
:102C000007D4016821F01001016084F8358084F850
:102C10003490E16B09B120468847606D00281FD0D1
:102C2000606DC00714D0052084F835002068016865
:102C300021F0010101600098401C0090B84203D8C7
:102C400020680068C007F6D184F8358084F8349095
:102C5000E16C002904D001B02046BDE8F0430847EC
:102C6000BDE8F883280000202DE9F041044600F07B
:102C7000EDF905465CB1022084F83500002684F8A1
:102C800034602068016821F0010101600DE001203D
:102C9000BDE8F08100F0DAF9401B052805D92020B5
:102CA0006065032084F83500F2E720680068C007FB
:102CB000F0D121680A6820480240D4E90103184392
:102CC000D4E903352B43184363691843A3691843B8
:102CD000E3691843236A18431043626A042A03D144
:102CE000D4E90B231A43104308602068406920F0A0
:102CF0000700656A29460543012704290DD1A06A0A
:102D00000543E06A48B12046FFF7BEF828B14020ED
:102D1000606584F835700120BAE720684561204677
:102D2000FFF79CF894F85C203F2191408160666534
:102D300084F835700020ABE73F8010F02DE9F041BA
:102D400004460025A66D94F8340001280DD001201A
:102D500084F8340094F835700020012F07D084F8EF
:102D6000340002252846BDE8F0810220FBE7022757
:102D700084F8357060652046FFF7C2F894F85C105F
:102D80003F208840B0602068016841F01601016072
:102D9000206C20B12068016841F0080101602068C2
:102DA000016841F001010160DCE7000010B5234C2F
:102DB00010281BD020282BD0082837D0012814D168
:102DC000607108F05DFC01280FD004F10C01A069CE
:102DD00007F08CFFE068002807D019494FF08050B9
:102DE0000860BFF34F8FBFF36F8F10BD0C2006F04C
:102DF00007FC607840F001006070A07840F00100AE
:102E0000A07020790028F0D0BDE8104006F0D4BDB5
:102E10000B2006F0F5FB207840F0010020702079AF
:102E20000028E2D0BDE8104006F0C6BD0D2006F037
:102E3000E7FBE07840F00100E07010BDCC0000201E
:102E400004ED00E010B504490A68024202D00860AF
:102E5000FFF7ACFF10BD0000143C01402DE9F84F16
:102E60000022DFF89C914FF0010803274FF00F0C70
:102E700009F1040AA9F1040B08FA02F50B682B40CA
:102E8000AB426ED10C7904F00304012C01D0022C6A
:102E900015D18668540007FA04FE26EA0E06D1F81A
:102EA0000CE00EFA04FE4EEA060EC0F808E0446894
:102EB000AC430D79C5F300159540254345600C7969
:102EC000E443A40708D0C568540007FA04F6B543E4
:102ED0008E68A6402E43C6600C7904F00304022CD1
:102EE00011D1D40800EB8406356A5407E40E0CFABD
:102EF00004FE25EA0E05D1F810E00EFA04FE4EEAB3
:102F0000050EC6F820E00568540007FA04F6B5433C
:102F10000E7906F00306A6402E4306604C6814F4B2
:102F2000403F67D0374C256845F4804525602468CC
:102F300004F480440094344C22F003052E19D6F892
:102F4000085894074FEA147E0CFA0EF4A5432F4C50
:102F5000A04201D1002424E02D4CA04202D1012442
:102F60001FE047E02B4CA04201D1022419E02A4C7B
:102F7000A04201D1032414E0284CA04201D1042432
:102F80000FE0274CA04201D105240AE0254CA042C5
:102F900001D1062405E0244CA04201D1072400E021
:102FA000082404FA0EF42C43C6F80848D9F8004067
:102FB0009C434D68ED0200D51C43C9F80040DAF887
:102FC00000409C434D68AD0200D51C43CAF8004048
:102FD000DBF800409C434D68AD0300D51C43CBF8A3
:102FE0000040074D083D2C689C434E68F60300D511
:102FF0001C432C60521C102AFFF43EAFBDE8F88F32
:10300000083C0140443802400030014000000240CA
:103010000004024000080240000C02400010024080
:103020000014024000180240001C0240426921EADC
:1030300002030A4043EA024181617047002A01D03D
:103040008161704709048161704700000148806810
:10305000704700001C00002070B50446002C04D00E
:1030600094F83D00002510B106E0012070BD84F801
:103070003C50204600F0ACFA242084F83D00206843
:10308000016821F0010101602068016841F40041FC
:1030900001602068016821F40041016000F076FCC5
:1030A0004F4B6168994203D84E49884203D304E0EC
:1030B0004D49884201D2012070BD4C49B0FBF1F16D
:1030C0002268566826F03F060E43566062689A42B0
:1030D00001D8491C07E04FF4967251434FF47A72BD
:1030E000B1FBF2F1491C2268166A26F03F06314313
:1030F00011626168994210D84900401EB0FBF1F29C
:10310000521CC2F30B02042A01D2042022E0B0FBBD
:10311000F1F0401CC0F30B001CE0A268F2B301EB1D
:10312000C10303EB0116431EB3FBF6F35B1C43F430
:1031300080431B0549D092B301EBC10202EB0111A0
:10314000401EB0FBF1F0401CC0F30B0040F4804087
:1031500040F400402168CA694CF6FF739A4310435B
:10316000C861D4E9071001432068026822F0C00258
:1031700011430160D4E9030101432068826848F2E9
:10318000FF339A4311438160D4E90510014320685D
:10319000C26822F0FF021143C16001E00EE016E0B8
:1031A0002068016841F0010101602564202084F855
:1031B0003D00256384F83E50002070BD01EB4106C0
:1031C000431EB3FBF6F35B1CB3E70120C2E701EB40
:1031D0004101401EB0FBF1F0401CC0F30B00B7E70B
:1031E000A086010080841E0000093D0040420F00BF
:1031F0002DE9FF4F83B00446DDE911988A469346D6
:10320000109FFFF723FF054694F83D00202803D0C8
:10321000022007B0BDE8F08F19230122984920460B
:10322000009501F05DFF08B10220F2E794F83C0040
:10323000012807D0012084F83C0020680168C907F4
:1032400002D005E00220E4E7016841F001010160DD
:103250002068016821F400610160222084F83D00AB
:10326000402084F83E00002626646762A4F82A9075
:10327000608D20858348E062CDE900855A4651463D
:103280002046069B01F0FEFD08B10120C1E7208D1C
:1032900048B1012810D002281CD0206841698069FB
:1032A0000290794FE1E020684169816902910168EB
:1032B00041F400710160F4E72068016821F4806145
:1032C00001602068416981690291016841F40071DF
:1032D0000160E6E72068016821F4806101602068F0
:1032E000016841F4006101602068416980690290D1
:1032F000D7E703287ED801280BD002281FD04346E9
:10330000002239462046009501F0EAFEF0B3012084
:103310007FE72A464146204601F09CFF08B1012084
:1033200077E720680069616A0870606A401C606223
:10333000208D401E2085608D401E608595E04346AF
:10334000002239462046009501F0CAFE08B101204E
:103350005FE72068016841F400710160206800693E
:10336000616A0870606A401C6062218D491E218577
:10337000618D491E6185216809690170606A401C80
:103380006062208D401E2085608D00E002E0401EBE
:1033900060856AE02068016821F48061016020682E
:1033A0000069616A0870606A401C6062208D401E7E
:1033B0002085608D401E60854346002239462046A8
:1033C000009501F08DFE08B1012022E72068016818
:1033D00041F40071016020680069616A0870606AE8
:1033E000401C6062218D491E2185618D491E6185C9
:1033F000216800E00BE009690170606A401C6062AE
:10340000208D401E2085608D401E60852DE02A465F
:103410004146204601F01EFF08B10120F9E6206870
:103420000069616A0870606A401C6062208D401EFD
:1034300081B22185608D401E608520684269D2433B
:10344000520712D4032903D1016821F4806101607D
:1034500020680069616A0870606A401C6062208DA3
:10346000401E2085608D401E6085208D00287FF4E1
:1034700040AF20203C346070A67026700020C8E663
:10348000020010000000FFFF040001002DE9FF4FC3
:1034900083B00446DDE911988A469346109DFFF7F4
:1034A000D5FD064694F83D00202803D0022007B041
:1034B000BDE8F08F1923012243492046009601F010
:1034C0000FFE08B10220F2E794F83C00012807D073
:1034D000012084F83C0020680168C90702D005E09B
:1034E0000220E4E7016841F0010101602068016801
:1034F00021F400610160212084F83D00402084F81F
:103500003E00002727646562A4F82A90608D20851C
:103510002E48E062CDE900865A4651462046069B79
:1035200001F050FD80B30120C1E7324641462046FC
:1035300001F0CBFE48B1206C042804D1206801685A
:1035400041F4007101600120B1E7606A21680078F0
:103550000861656A6D1C6562208D401E80B2208501
:10356000618D491E618523685969C94349070BD498
:1035700050B128781861606A401C6062208D401E3E
:103580002085608D401E6085208D0028CDD132467B
:103590004146204601F078FD48B1206C042804D152
:1035A0002068016841F40071016001207FE71F3449
:1035B00054F81F0C016841F4007101602020A077CD
:1035C000E7776777002072E7020010000000FFFF36
:1035D000F0B587B00446142102A8FCF7FCFF1D4992
:1035E0002068884233D11C48016841F00401016021
:1035F000016801F004010191016841F001010160DD
:10360000006800F0010001904FF400700290122752
:10361000039701240494032605960425069502A920
:103620000E48FFF71BFC20020290039704940596B6
:10363000069502A90A48FFF711FC074810300168F7
:1036400041F400010160006800F40000019007B03F
:10365000F0BD0000005C004030380240000802402D
:10366000000002400248816802781144816070477E
:103670001C00002010B50B48016841F40071016086
:10368000016841F480610160016841F4807101606A
:10369000032000F09FF80F2000F006F800F050F82B
:1036A000002010BD003C024030B587B00546002424
:1036B0001F48016841F001010160006800F001004D
:1036C000009001A902A800F03DF90598B0B100F002
:1036D0005DF940001749B0FBF1F1491E16484FF063
:1036E0008042026040F2E732C2604160046184605F
:1036F000846100F0B1FD04461CB115E000F046F90C
:10370000E8E70D4800F0F2FD04466CB91C2000F01B
:1037100033F8102D07D2002229461C2000F03AF879
:103720000648056000E0012407B0204630BD0000D7
:103730004038024040420F00E80E002020000020E8
:1037400082B00C48016841F480410160006800F4D7
:10375000804001900748001F016841F080510160DE
:10376000006800F08050019000220F21901E02B0EE
:1037700000F010B844380240002809DB00F01F02B6
:10378000012191404009800000F1E020C0F80011C3
:1037900070470000F0B40D460D4B1B68C3F30223C5
:1037A000C3F10704042C00D90424191D072901D2F0
:1037B000002300E0DB1E012606FA04F1491E294021
:1037C00099409E40761E16403143F0BC04F069BE1D
:1037D0000CED00E000F00701054A10684FF6FF030A
:1037E000184040EA01200349084310607047000078
:1037F0000CED00E00000FA052DE9F04704460D4607
:10380000002C13D0DFF82891D9F80000EFB200F0B7
:103810000700A8420CD289F80070D9F8000000F027
:103820000700A84204D00120BDE8F0870120FBE793
:103830002068404E810712D5400703D5306840F418
:10384000E05030602078000703D5306840F46040D5
:1038500030603068A16820F0F000084330602078C4
:10386000C00731D0334960680839012808D00228E0
:103870000BD0032809D0096889070BD40120D3E7AE
:103880000968890306D40120CEE70968890101D4BB
:103890000120C9E7316821F0030101433160FFF7DE
:1038A000D5FB804641F2883A07E0FFF7CFFBA0EB5B
:1038B0000800504501D90320B6E73068616800F080
:1038C0000C00B0EB810FF0D1D9F8000000F0070038
:1038D000A84209D989F80070D9F8000000F0070063
:1038E000A84201D001209FE72078400705D5306825
:1038F000E16820F4E050084330602078000706D5E6
:103900003068216920F4604040EAC100306000F076
:103910005DF83168084AC1F30311515CC84007499A
:10392000086007480068FFF7BFFE00207CE7000042
:10393000003C02400838024054C100082800002022
:10394000200000200F2202600B4A136803F00303DB
:103950004360136803F0F0038360136803F4E053DB
:10396000C360126802F46042D20802610348006832
:1039700000F007000860704708380240003C024031
:1039800001480068704700002800002000B5FFF7DC
:10399000F7FF04490968044AC1F38221515CC84019
:1039A00000BD00000838024064C1000800B5FFF700
:1039B000E7FF04490968044AC1F34231515CC84039
:1039C00000BD00000838024064C1000810B5174867
:1039D000006810F00C01164816D0164B042912D0BE
:1039E000082911D1114C241F216801F03F022168E0
:1039F00049020AD52068C0F38810A0FB0301002308
:103A0000FCF7B2FC09E0184610BD21680023C1F3A1
:103A10008811A1FB0001FCF7A7FC2168C1F301415B
:103A2000491C4900B0FBF1F010BD0000083802400D
:103A30000024F400001BB7002DE9F84F0446002CC9
:103A400013D02078DFF8A083C007A8F1040556D072
:103A500008F104000168C1F3810101290CD000685C
:103A6000C0F38100022803D00DE00120BDE8F88FEB
:103A7000D8F80000400206D5286880033FD560686A
:103A800070BB0120F2E76068B0F5803F10D0B0F560
:103A9000A02F12D0286820F480302860286820F4F5
:103AA000802028606068E0B1FFF7D0FA064614E095
:103AB000286840F480302860F4E7286840F48020CB
:103AC0002860286840F480302860EBE7FFF7BEFAF2
:103AD000801B642801D90320C8E728688003F5D536
:103AE0000DE0FFF7B3FA064606E0FFF7AFFA801BDA
:103AF000642801D90320B9E728688003F5D4207829
:103B0000BA4F80074FF0000948D5B748001D01683B
:103B100011F00C0F08D00068C0F38100022813D107
:103B2000D8F8000040020FD42868800704D5E06868
:103B3000012801D0012099E72868216920F0F800C8
:103B400040EAC100286029E0E068B8B1012038608F
:103B5000FFF77CFA064606E0FFF778FA801B02289A
:103B600001D9032082E728688007F5D528682169F4
:103B700020F0F80040EAC10028600FE0C7F800908C
:103B8000FFF764FA064606E0FFF760FA801B02289A
:103B900001D903206AE728688007F5D42078000758
:103BA00029D5DFF844A2924861690AF1700A89B107
:103BB00001210160FFF74AFA064606E0FFF746FAE0
:103BC000801B022801D9032050E7DAF800008007A3
:103BD000F4D510E0C0F80090FFF738FA064606E08A
:103BE000FFF734FA801B022801D903203EE7DAF8F8
:103BF00000008007F4D42078400778D54FF0000A01
:103C000079483C300068C0000BD477483C300168EC
:103C100041F080510160006800F0805000904FF04A
:103C2000010ADFF8D0B1DBF80000C00514D4DBF8DE
:103C3000000040F48070CBF80000FFF707FA06465A
:103C400006E0FFF703FA801B022801D903200DE7E5
:103C5000DBF80000C005F4D5634EA0686C3601287F
:103C60000FD0052812D0306820F001003060306895
:103C700020F004003060A068F8B1FFF7E7F9834650
:103C800017E0306840F001003060F4E7306840F041
:103C900004003060306840F001003060EBE7FFF76F
:103CA000D5F9A0EB0B0141F28830814201D9032004
:103CB000DCE630688007F2D510E0FFF7C7F98346ED
:103CC00009E0FFF7C3F9A0EB0B0141F28830814214
:103CD00001D90320CAE630688007F2D4BAF1010F97
:103CE00005D141483C30016821F080510160A06954
:103CF000C0B33D49091D09684FF0FF36C1F381018A
:103D0000022946D0022805D0C7F86090FFF79EF937
:103D100004463AE0C7F86090FFF798F9814607E05B
:103D2000FFF794F9A0EB0900022801D903209DE6D2
:103D300028688001F4D4D4E907010843616AA26AC3
:103D4000890106EB520241EA0241084394F82C1023
:103D500040EA0160C8F8000001203866FFF776F9F4
:103D6000044607E03DE0FFF771F9001B022801D986
:103D700003207BE628688001F5D532E0FFF766F97D
:103D8000001B022801D9032070E628688001F5D4C1
:103D900027E0012823D0D8F80000E26900F4800170
:103DA00091421AD1226A00F03F01914215D147F6A3
:103DB000C071626A0140B1EB821F0ED1A26A00F4A9
:103DC000403106EB5202B1EB024F06D194F82C10B1
:103DD00000F07060B0EB016F03D0012046E60120D7
:103DE00044E6002042E6000004380240000047425A
:103DF000800E47420070004070B50446002C09D088
:103E0000606A002540B125616561A56294F85100A2
:103E100040B10CE0012070BD6068B0F5827FF4D045
:103E2000E561F2E784F85050204600F045F80220A2
:103E300084F851002068016821F040010160A088E9
:103E4000218900F4827001F404410843A18901F43E
:103E500000610843217C01F002010843217D01F04B
:103E600001010843218B01F400710843217F01F017
:103E70003801084394F8201001F080010843218D97
:103E800001F40051084321680860A069042101EA97
:103E9000104094F8241001F0100108432168486094
:103EA0002068C16921F40061C1616565012084F861
:103EB0005100002070BD00002DE9F04387B0054699
:103EC000142102A8FCF787FB3949286888426CD185
:103ED00000263848016841F480510160006800F410
:103EE0008050019033481438016841F002010160AC
:103EF000016801F002010191016841F001010160D6
:103F0000006800F001000190182002904FF00208B4
:103F1000CDF80C804FF00109CDF8109003240594E2
:103F20000527069702A92448FEF798FF80200290F3
:103F3000CDF80C80CDF810900594069702A91F4883
:103F4000FEF78CFF1F4C1E4820604FF0C068C4F87D
:103F50000480A660E660071527616661A661E661D8
:103F60004FF44030206266622046FEF77DFE08B1C5
:103F7000FDF7F7FFEC64A5631148124C183060346C
:103F80002060C4F804804020A060E660276166617C
:103F9000A661E661C002206266622046FEF764FE0A
:103FA00008B1FDF7DEFFAC64A56307B0BDE8F083A0
:103FB000003001404438024000040240000002404A
:103FC00040640240E00A00202DE9FF4F81B0044622
:103FD0000E9E93461F460125FFF738F8804694F859
:103FE0005100616801280AD0B1F5827F03D1A16830
:103FF00009B9042803D0022005B0BDE8F08F02986B
:10400000A0B3BBF1000F32D0380030D094F850008C
:1040100001282ED04FF0010A84F850A094F85100E6
:10402000042802D0052084F851004FF00009C4F89C
:104030005490C4F838B0E787A78702982063E786D2
:10404000A786C4F84090C4F84490206801684906E7
:1040500003D4016841F040010160E068B0F5006FF1
:1040600009D06068F0B3012F4DD082E0FFE7012056
:10407000C2E70220C0E7606808B1012F3CD1206B85
:1040800021680088C860206B801C2063E08E401E81
:10409000E08631E02068816889070DD5E18E59B14D
:1040A000012D09D1216B0988C160206B801C206320
:1040B000E08E401EE086002520688168C9070BD08D
:1040C000E18F49B1C068A16B0880A06B801CA06320
:1040D000E08F401EE0870125FEF7B8FFA0EB080047
:1040E000B04200E00FE007D3701C05D084F851A067
:1040F00084F8509003207FE7E08E0028CAD1E08F3B
:104100000028C7D13BE0206B216800780873206B42
:10411000401C2063E08E401EE0862AE02068816813
:1041200089070DD5E18E59B1012D09D1216B09788F
:104130000173206B401C2063E08E401EE08600254A
:1041400020688168C9070BD0E18F49B1C068A16BB5
:104150000870A06B401CA063E08F401EE087012523
:10416000FEF774FFA0EB0800B04201D3701C12D11F
:104170008EB1E08E0028D1D1E08F0028CED142460A
:104180003146204603F082FB58B12020606584F858
:104190005090012030E784F851A084F8509003201B
:1041A0002AE7A06818B92068C1688068009084F880
:1041B00051A084F85090606D08B101201CE70020E8
:1041C0001AE770477047000070B590F83C20012A4C
:1041D00031D0012680F83C60022280F83D20026840
:1041E0005468936824F070050C682C435460134C99
:1041F0000268A24214D0B2F1804F11D0104CA242FA
:104200000ED0104CA2420BD00F4CA24208D00F4C43
:10421000A24205D00E4CA24202D00E4CA24204D1C2
:1042200023F080034968194391603C3046700021B7
:104230000170002070BD022070BD00000000014030
:104240000004004000080040000C00400004014051
:10425000004001400018004010B50446002C03D077
:1042600094F83D0010B107E0012010BD002084F853
:104270003C00204600F016F8022084F83D00211D85
:10428000206803F0A1FD01203D3460726070A070D1
:10429000E07020716071A071E071207220700020C8
:1042A00010BD000008B500680D49884209D10D48CD
:1042B000016841F004010160006800F00400009012
:1042C00008BD09498842FBD10648001D016841F438
:1042D00000310160006800F40030009008BD00006B
:1042E00000080040403802400044014090F83D1072
:1042F000012901D001207047022180F83D1001689A
:10430000CA6842F00102CA6000681449884214D0A9
:10431000B0F1804F11D0124988420ED01149884225
:104320000BD01149884208D01049884205D0104965
:10433000884202D00F49884209D1816801F0070103
:10434000062908D0016841F00101016003E001681D
:1043500041F00101016000207047000000000140B1
:104360000004004000080040000C00400004014030
:10437000004001400018004070B50446002594F844
:104380003C00012817D0012684F83C60022084F804
:104390003D002068826822F0770222F47F4282602A
:1043A0000868502838D00DDC202853D005DC90B3A5
:1043B000102811D14EE0022070BD30284AD040288C
:1043C0000AD13DE0602831D070280CD0B0F5805F74
:1043D00003D0B0F5005F12D001253C346670002098
:1043E0002070284670BDCB68D1E90121206803F018
:1043F00066FD2068816841F077018160EDE7CB6858
:10440000D1E90121206803F05AFD2068816841F458
:1044100080418160E1E71DE0CA684968206803F0D7
:1044200031FE5021206803F054FDD6E7CA68496880
:10443000206803F038FE6021206803F04AFDCCE7D5
:10444000CA684968206803F01DFE4021206803F017
:1044500040FDC2E722680146104603F03AFDBCE782
:1044600070472DE9F04104462068C56806694FF0A1
:104470000007B10714D5A90712D5F91E0161012063
:10448000207720688069800703D02046FFF7E8FF87
:1044900005E0204600F0C6F8204600F056F92777E0
:1044A000700717D5680715D521686FF004000861FB
:1044B000022020772068806910F4407F03D02046D6
:1044C000FFF7CEFF05E0204600F0ACF8204600F0F4
:1044D0003CF92777300716D5280714D521686FF0E7
:1044E00008000861042020772068C069800703D095
:1044F0002046FFF7B5FF05E0204600F093F8204680
:1045000000F023F92777F00617D5E80615D52168BE
:104510006FF010000861082020772068C06910F44F
:10452000407F03D02046FFF79BFF05E0204600F0C8
:1045300079F8204600F009F92777F00708D0E80756
:1045400006D021686FF001000861204600F0AAF94A
:10455000300608D5280606D521686FF0800008616E
:104560002046FFF72EFE700608D5680606D521689E
:104570006FF040000861204600F09BF9B0060AD5B4
:10458000A80608D521686FF0200008612046BDE824
:10459000F041FFF717BEBDE8F081000030B587B0ED
:1045A0000446142102A8FCF716F8194D2068194991
:1045B000022201240323A84213D1086840F0080016
:1045C0000860086800F00800019050030290039210
:1045D00004940593069202A90F48FEF73FFC07B02A
:1045E00030BD0E4DA842FAD1086840F020000860A6
:1045F000086800F02000019040200290039204948B
:104600000593069302A90648FEF728FCE7E7000099
:104610000008004030380240000C024000440140D5
:1046200000140240704770B504460D46002694F809
:104630003C0001280FD0012084F83C006AB1042A14
:104640001FD0082A32D00C2A44D00126002084F83A
:104650003C00304670BD022070BD2946206803F042
:1046600041FC2068816941F008018161206881690D
:1046700021F004018161206881692A691143816107
:10468000E4E72946206803F061FC2068816941F471
:10469000006181612068816921F480618161206805
:1046A00081692A6941EA02218161CFE729462068B0
:1046B00003F086FC2068C16941F00801C1612068EF
:1046C000C16921F00401C1612068C1692A691143EF
:1046D000C161BBE72946206803F0AAFC2068C169D4
:1046E00041F40061C1612068C16921F48061C16148
:1046F0002068C1692A6941EA0221C161A6E710B5B3
:104700000446002C03D094F83D0010B107E00120CE
:1047100010BD002084F83C00204600F015F802206F
:1047200084F83D00211D206803F04EFB01203D343C
:1047300060726070A070E07020716071A071E071B3
:1047400020722070002010BD7047704710B50446DD
:10475000002909D004290AD008290BD094F8410077
:1047600001280AD0012010BD94F83E00F8E794F823
:104770003F00F5E794F84000F2E70220A9B30429CE
:1047800037D0082938D084F841000122206803F08E
:1047900089FB1E4920681E4A884201D0904203D1FD
:1047A000436C43F4004343642068884213D0B0F163
:1047B000804F10D0174988420DD0174988420AD03F
:1047C0001649884207D0904205D01549884202D048
:1047D0001449884213D1816801F00701062912D0DB
:1047E000016841F0010101600DE0FFE784F83E003F
:1047F000CBE784F83F00C8E784F84000C5E70168CC
:1048000041F001010160002010BD000000000140E6
:10481000000401400004004000080040000C00407B
:10482000004001400018004030B504460D4600220B
:104830002946206803F036FB184A41F2111120681E
:104840008B10904202D0164A904209D1026A0A4265
:1048500006D1026A1A4203D1426C22F40042426439
:104860002068026A0A4206D1016A194203D101682E
:1048700021F00101016001203DB1042D08D0082D77
:1048800009D084F84100002030BD84F83E00FAE7EA
:1048900084F83F00F7E784F84000F4E700000140A7
:1048A000000401400068B0F1804F01D1FEF7DABE8C
:1048B0007047704770477047F8B504462268106823
:1048C000D168536900F00F06002E08D1850606D581
:1048D0008D0604D52046BDE8F84003F08BBC0025CA
:1048E000002E66D003F0010601F49077374360D0C4
:1048F000C20705D0CA0503D5626C42F001026264AA
:10490000420705D5DA0703D0626C42F00202626406
:10491000820705D5DA0703D0626C42F004026264B4
:10492000020707D501F02002324303D0626C42F047
:1049300008026264626C002A31D0800604D58806C1
:1049400002D5204603F056FC20684069C0F3801071
:10495000616C090700D438B3204603F009FC2068D5
:10496000406940061CD52068143050E8001F21F033
:10497000400140E80012002AF5D1E06B60B15949CE
:104980000165E06BFEF775F8002808D0E06B016D5B
:1049900001B0BDE8F04008472046FFF78CFFF8BDA6
:1049A0002046FFF788FFF8BD2046FFF784FF6564C7
:1049B000F8BD236B012B7DD1C3067BD5CB067FD5FC
:1049C00010685068009050694FF0200340064FF087
:1049D000020644D5E16B0868406880B20028E7D041
:1049E000A28D8242E4D9E085C869B0F5807F2DD0E0
:1049F00020680C3050E8001F21F4807140E800125C
:104A0000002AF5D12068143050E8001F21F0010180
:104A100040E80012002AF5D12068143050E8001F49
:104A200021F0400140E80012002AF5D184F842301C
:104A3000256320680C3050E8001F21F0100140E889
:104A40000012002AF5D1E06BFDF7CCFF6663A08D64
:104A5000E18D401A81B22046FFF72CFFF8BDA08DF2
:104A6000E18D401A81B2E08D0028F7D00029F5D001
:104A700020680C3050E8002F22F4907240E80027A4
:104A8000002FF5D12068143050E8002F22F00102E9
:104A900040E80027002FF5D184F8423025632068D4
:104AA0000C3050E8002F22F0100240E80023002BC9
:104AB000F5D100E004E066632046FFF7FBFEF8BD99
:104AC000020606D50A0604D52046BDE8F84003F0E4
:104AD0007FBC4006F3D54806F1D52046BDE8F84036
:104AE00003F06DBBCB80000870B50446002C04D0E9
:104AF00094F84100002510B106E0012070BD84F853
:104B00004050204600F024F8242084F8410020681A
:104B1000C16821F40051C160204603F0CFFB20683A
:104B2000016921F4904101612068416921F02A0165
:104B300041612068C16841F40051C1606564202072
:104B400084F8410084F842006563002070BD0000D5
:104B50002DE9F04F87B00446142102A8FBF73BFD76
:104B600090488F4A143823688E490227002506157D
:104B70004FF003084FF0070A4FF0400B4FF0006969
:104B800093426BD10A6842F010020A60096801F092
:104B900010010191016841F002010160016801F01A
:104BA00002010191016841F001010160006800F01B
:104BB000010001908020029003970495CDF81480A5
:104BC000CDF818A002A97848FEF748F970100290B5
:104BD00003970495CDF81480CDF818A002A9734866
:104BE000FEF73CF9734F72483860C7F80490C7F875
:104BF00008B0FD603E617D61BD61FD614FF44030F4
:104C000038627D623846FEF72FF808B1FDF7A9F942
:104C1000A763BC636648674F303860373860C7F8B1
:104C20000490BD60FD603E617D61BD61FD614FF43A
:104C3000003038627D623846FEF716F808B1FDF79D
:104C400090F9E763BC63002205212520FEF7A2FD51
:104C50002520FEF791FD07B0BDE8F08FDFF858C1C1
:104C6000012263453DD14F49091F0B6843F480235E
:104C70000B60096801F480210191016841F0040191
:104C80000160006800F0040001904FF44060029061
:104C900003970492CDF81480CDF818A002A94748D4
:104CA000FEF7DCF8434F4648C0373860C7F8049039
:104CB000BD60FD603E617D61BD61FD613D627D6203
:104CC0003846FDF7D1FF08B1FDF74BF9E763BC6348
:104CD000002205212720FEF75DFD2720FEF74CFD71
:104CE000B9E7DFF8E0C06345B5D10B6843F02003B6
:104CF0000B60096801F020010191016841F0400159
:104D00000160006800F0400001904FF48440029080
:104D100003970492CDF814800820069002A92A482F
:104D2000FEF79CF82248294F903838604FF02068F1
:104D3000C7F80480BD60FD603E617D61BD61FD61BD
:104D40004FF4003038627D623846FDF78DFF08B1C0
:104D5000FDF707F9E763BC6315481C4F1838603747
:104D60003860C7F80480C7F808B0FD603E617D6117
:104D7000BD61FD614FF4403038627D623846FDF719
:104D800073FF08B1FDF7EDF8A763BC6300220521AE
:104D90004720FEF7FFFC4720FEF7EEFC5BE7000034
:104DA000001001404438024000040240000002406C
:104DB000B8640240080D002000480040000802408E
:104DC000286002400014014000180240280E002014
:104DD0007047000037B5044694F84100202801D000
:104DE00002203EBD019959B352B32162A284E284EC
:104DF00000206064212384F84130A56B114BEB63E4
:104E0000A56B114B2B64A56B104BEB64A36B186562
:104E100020681346001DA56B02462846FDF78EFF4D
:104E200021686FF0400008602068143050E8001FCF
:104E300041F0800140E80012002AF5D100203EBD7B
:104E400001203EBD2581000867810008DB80000845
:104E500070477047FEE701684A69D24352050FD494
:104E60006FF480624A61002140F8301F20224273B3
:104E70008173026942F004020261017301207047EC
:104E8000002070472DE9F84F04460B9E0F469046D0
:104E90001D462068016841F4806101602068016856
:104EA00041F48071016000964FF0011A00225146D2
:104EB00020460A9B00F014F94FF4007940B12068B5
:104EC0000068C00501D5C4F840900320BDE8F88F04
:104ED000216807F0FE000861DFF8E4B03346594668
:104EE00020460A9A00F052F908B10120EEE7206846
:104EF000416980690090324620460A9900F0E5F940
:104F000048B1206C042804D12068016841F4007184
:104F100001600120DAE7284608F0FF0501280DD0DE
:104F200021684FEA18200861324620460A9900F0AD
:104F3000CCF968B1206C042803D007E02068056133
:104F400008E02068016841F4007101600120BDE7BC
:104F500020680561324620460A9900F0B6F948B14A
:104F6000206C042804D12068016841F400710160BC
:104F70000120ABE72068016841F480710160009670
:104F80000022514620460A9B00F0AAF838B120685A
:104F90000068C00501D5C4F84090032096E7216859
:104FA000F8B240F0010008613346594620460A9A9B
:104FB00000F0ECF808B1012088E7002086E7000047
:104FC000020001002DE9F8430446DDE908970D468B
:104FD000164698462068016841F4807101604B468E
:104FE00000224FF001112046009700F079F848B1F7
:104FF00020680068C00502D54FF4007020640320CB
:10500000BDE8F883216805F0FE0008613B464A468A
:105010001C49204600F0BAF808B10120F0E72068EA
:105020004169806900903A464946204600F04DF9B2
:1050300048B1206C042804D12068016841F4007153
:1050400001600120DCE7F5B2B8F1010F0CD0216856
:10505000300A08613A464946204600F036F968B100
:10506000206C042803D007E02068056108E0206870
:10507000016841F4007101600120C1E72068056109
:105080000020BDE70200010070B504460D4616463B
:105090001FE02046FFF7DFFE08B1012070BD681C4D
:1050A00017D0FDF7D3FF801BA84200D88DB9206828
:1050B0004069C04340070CD5002044F8300F202140
:1050C0006173A073216941F02001216120730120E7
:1050D00070BD20684069C0434007DAD4002070BD2D
:1050E0002DE9F0470446DDF820900D4690461E4617
:1050F000C5F307472FE0701C2DD0FDF7A7FFA0EBED
:105100000900B04200D836BB012F17D02068806953
:1051100025EA00000004000C1BD0002040451AD1F5
:10512000002044F8300F20216173A073216941F001
:105130002001216120730120BDE8F08720684069CB
:1051400025EA00000004000C01D00020E6E7012061
:10515000E4E70120E2E7012F0BD02068806925EA0F
:1051600000000004000C0FD000204045C3D00020F8
:10517000E2E72068406925EA00000004000C01D045
:105180000020F2E70120F0E70120EEE72DE9F047EB
:1051900004460D46164698464FF000094FF0200A87
:1051A000C5F3074743E020684069C043400517D472
:1051B0002068016841F40071016021686FF480602B
:1051C0004861C4F8309084F83DA084F83E90206C8B
:1051D00040F00400206484F83C900120BDE8F08792
:1051E000701C24D0FDF732FFA0EB0800B04200D8BD
:1051F000EEB9012F14D02068806925EA0000000470
:10520000000C14D0C4F8309084F83DA084F83E908F
:10521000206C40F02000206484F83C900120DDE701
:105220002068406925EA00000004000CEAD1012F43
:1052300008D02068806925EA00000004000CB2D183
:105240000020CBE72068406925EA00000004000C3C
:10525000F6D0A8E72DE9F04104460D461646002792
:105260004FF020082AE04069C043C0060FD42168EF
:105270006FF010004861276384F83D8084F83E7029
:10528000206C206484F83C700120BDE8F081FDF7BB
:10529000DDFE801BA84200D885B920684069C04364
:1052A00040060BD544F8307F84F80D80A773206941
:1052B00040F02000206127730120E6E72068416963
:1052C000C9434906CFD40020DFE770B504460D4638
:1052D00016461FE02046FFF7BEFD08B1012070BD55
:1052E000681C17D0FDF7B2FE801BA84200D88DB90C
:1052F00020684069C04300060CD5002044F8300FF8
:1053000020216173A073216941F020012161207384
:10531000012070BD20684069C0430006DAD4002037
:1053200070BD000008B5072004F0E6FC02E0642030
:1053300004F0E2FCFBF7F4FC0028F8D102E0642062
:1053400004F0DAFC04F03EFC0028F8D18C4AA2F10B
:105350001004101D9146211D8246FBF7F9FC2346DF
:10536000A3F1400204F16C07A2F10C01A1F10C00C1
:10537000009704F0B3FADFED830A9FED830A834AB6
:10538000002104F1880000F0A7FDA4F14002A2F181
:105390000C0101F11800FBF7B5F9002004F0E6FC60
:1053A00006F02AF97A4DA8617A491020C8610846AA
:1053B000FEF722FD08B1FCF7D4FD7549082228311B
:1053C000A1F1080002F0DCF9012028719FED720ABA
:1053D0006B4E143686ED050A9FED700A86ED060ABF
:1053E0009FED6F0A86ED070A4FF0FF384146012016
:1053F00005F060FA0128F9D12878400720D52878EF
:1054000020F004002870624851462930FBF758FC10
:1054100094ED050AD6ED050A30EE600A84ED050A22
:1054200094ED060AD6ED060A30EE600A84ED060A0F
:1054300094ED070AD6ED070A30EE600A84ED070AFC
:10544000687840070AD5687820F0040068704C4AF4
:10545000211D1032A2F12A00FBF7E8FBA8784007D3
:105460000CD5A87820F00400A870494849461E30A1
:10547000FBF74AFD94ED040A04F028FB404B00972B
:10548000103BA3F14002A2F10C01A1F10C0004F0C9
:1054900025FA3B498039A1F10C0291ED000A82ED19
:1054A000000A01F10C00D0ED000AC1ED000A9FEDE9
:1054B0003D1ADFED3D1A00F1180360EE810A9FED01
:1054C0003B2A40EE210A93ED000A40EE020AC0EDAD
:1054D000000A91ED010A82ED010AD0ED010AC1ED49
:1054E000010A60EE810A40EE210A93ED010A40EEC6
:1054F000020AC0ED010A91ED020A82ED020AD0ED26
:10550000020AC1ED020A60EE810A40EE210A93ED23
:10551000020A40EE020AC0ED020A02460C331831BC
:105520009FED230A3030FBF747FADFF854B0ABF1B8
:10553000340B0BF1040359461A1DA1F1100004F0BD
:1055400059F9DBED000A9FED1B0A0BF10C0020EE70
:10555000801ADFED190AC1EE201AC0ED001A9BED8A
:10556000011A21EE001AC1EE201AC0ED011A9BEDBE
:10557000021A21EE000A80EE201A80ED021A35E7A9
:105580003CA000200080894500A08C45C0C10008D7
:10559000CC000020880A0020D1229C3AB606BC3BF1
:1055A000FD49483B5AF8F63F5D896EBFD5A9183BC7
:1055B0006F12833A00003443DB0F494006494FF431
:1055C0007A700860054D0C1521462846FDF72EFD22
:1055D000052005F055FBF7E734040040001C0240AD
:1055E00070B505462DED048B0E46F0EE408A9FED1A
:1055F000389A9FED388A31462846FBF7C3FA0024D3
:10560000F2EE049A3146B0EE480A2846FBF742FD16
:105610002846FBF7E7FDB4EEE80AF1EE10FA08DDE4
:10562000092C34D0B0EE489A28EE298A641C0A2C42
:10563000E8DB294C00206060F6EE009A39EE080A9B
:1056400020EE290A84ED000A31462846FBF722FDA8
:105650002846FBF7C7FD84ED020AB4EEE80AF1EE36
:1056600010FA19D278EEC00A1C4910EE900A88424E
:1056700012DA94ED000A85ED030A2079401C2872A5
:1056800094ED020A85ED010ABDEC048B70BD85ED39
:10569000010A85ED038AF7E7B4EEE80AF1EE10FAA5
:1056A00002DD94ED009A01E094ED008A6068401CF0
:1056B00060601E28C2DB94ED000A85ED030A2079A4
:1056C000401C287294ED020A85ED010ADCE7000017
:1056D00000000000CDCC4C3D20030020CDCC4C3F41
:1056E000DFED0D0A0D480E490CE010EE102A824243
:1056F00002D930EE200A05E010EE102A8A4201DDC0
:1057000030EE600A10EE102A8242EED810EE102A17
:105710008A42EADC704700000000B443000034C352
:105720000000344310B50F480D490160032141606A
:1057300000218160C1604FF4102202614FF4001219
:105740004261017641768176C17601774177FCF737
:10575000D7FE002803D0BDE81040FCF702BC10BD06
:1057600000640040E409002010B50F480D490160B5
:105770000321416000218160C1604FF41022026169
:105780004FF400124261017641768176C17601774D
:105790004177FCF7B5FE002803D0BDE81040FCF7C8
:1057A000E0BB10BD006800400C0A002010B507499E
:1057B000054808600846FDF7EFF8002803D0BDE86B
:1057C0001040FCF7CEBB10BD00300240140000209A
:1057D00008B52548016841F480010160016801F4C1
:1057E00080010091016841F400110160006800F43B
:1057F00000100090002205210C20FDF7CBFF0C20AB
:10580000FDF7BAFF002205213920FDF7C3FF39203B
:10581000FDF7B2FF002205213A20FDF7BBFF3A2039
:10582000FDF7AAFF002205213B20FDF7B3FF3B2037
:10583000FDF7A2FF002205214420FDF7ABFF442025
:10584000FDF79AFF002205214520FDF7A3FF452023
:10585000FDF792FF002205214620FDF79BFFBDE8E2
:1058600008404620FDF788BF3038024010B59CB094
:105870001C22164915A8FAF752FE002115A804F0BB
:1058800048FA134C20601C2210491C310EA8FAF76C
:1058900046FE00210EA804F03CFA60601C220B4971
:1058A000383107A8FAF73BFE002107A804F031FAC7
:1058B000A0601C22054954316846FAF730FE0021E9
:1058C000684604F026FAE0601CB010BDDCC0000899
:1058D000000000202DE9F04F87B0142102A8FAF74C
:1058E0007AFE00267F48016841F0100101600168DE
:1058F00001F010010191016841F0020101600168AD
:1059000001F002010191016841F04001016001686C
:1059100001F040010191016841F00101016001685D
:1059200001F001010191016841F008010160016885
:1059300001F008010191016841F004010160016872
:1059400001F004010191016841F0800101600168EA
:1059500001F080010191016841F0200101600068BF
:1059600000F020000190DFF880B10122402158466C
:10597000FDF764FB4FF4E058002241465B48FDF719
:105980005DFB012210215A48FDF758FB00224021FF
:105990005748FDF753FB012211465648FDF74EFBD1
:1059A0000327029703960225049502A95248FDF7A2
:1059B00055FAE80102900395012404940597069591
:1059C00002A94E48FDF74AFA8020029003960495FA
:1059D00002A94A48FDF742FA4FF04009CDF8089075
:1059E00003940494059502A95846FDF737FACDF8BB
:1059F000088003940495059702A93C48FDF72EFA08
:105A00004FF0090ACDF808A04FF40418CDF80C8027
:105A1000049402A95846FDF721FA60020290039609
:105A2000049502A93148FDF719FA10200290039459
:105A30000494059502A92E48FDF710FA3020029033
:105A4000CDF80C80049402A92C48FDF707FA4FF416
:105A500020500290039504940597069402A92648C5
:105A6000FDF7FCF9CDF808901120039004960596F7
:105A700002A91F48FDF7F2F90294039404940595D6
:105A800002A91C48FDF7EAF9B803029003950494B3
:105A90000597CDF818A002A91648FDF7DFF90022F6
:105AA00005210620FDF776FE0620FDF765FE0022A3
:105AB00005210920FDF76EFE0920FDF75DFE00229D
:105AC00005210A20FDF766FE0A20FDF755FE00229B
:105AD00005211720FDF75EFE1720FDF74DFE07B0EC
